{
  "contractName": "EventContract",
  "abi": [
    {
      "anonymous": false,
      "inputs": [
        {
          "indexed": false,
          "internalType": "uint256",
          "name": "date",
          "type": "uint256"
        }
      ],
      "name": "EventDateDebug",
      "type": "event"
    },
    {
      "inputs": [
        {
          "internalType": "uint256",
          "name": "",
          "type": "uint256"
        }
      ],
      "name": "events",
      "outputs": [
        {
          "internalType": "address",
          "name": "organizer",
          "type": "address"
        },
        {
          "internalType": "string",
          "name": "name",
          "type": "string"
        },
        {
          "internalType": "uint256",
          "name": "date",
          "type": "uint256"
        },
        {
          "internalType": "uint256",
          "name": "price",
          "type": "uint256"
        },
        {
          "internalType": "uint256",
          "name": "ticketCount",
          "type": "uint256"
        },
        {
          "internalType": "uint256",
          "name": "ticketRemain",
          "type": "uint256"
        }
      ],
      "stateMutability": "view",
      "type": "function",
      "constant": true
    },
    {
      "inputs": [],
      "name": "nextId",
      "outputs": [
        {
          "internalType": "uint256",
          "name": "",
          "type": "uint256"
        }
      ],
      "stateMutability": "view",
      "type": "function",
      "constant": true
    },
    {
      "inputs": [
        {
          "internalType": "address",
          "name": "",
          "type": "address"
        },
        {
          "internalType": "uint256",
          "name": "",
          "type": "uint256"
        }
      ],
      "name": "tickets",
      "outputs": [
        {
          "internalType": "uint256",
          "name": "",
          "type": "uint256"
        }
      ],
      "stateMutability": "view",
      "type": "function",
      "constant": true
    },
    {
      "inputs": [
        {
          "internalType": "string",
          "name": "name",
          "type": "string"
        },
        {
          "internalType": "uint256",
          "name": "date",
          "type": "uint256"
        },
        {
          "internalType": "uint256",
          "name": "price",
          "type": "uint256"
        },
        {
          "internalType": "uint256",
          "name": "ticketCount",
          "type": "uint256"
        }
      ],
      "name": "createEvent",
      "outputs": [],
      "stateMutability": "nonpayable",
      "type": "function"
    },
    {
      "inputs": [
        {
          "internalType": "uint256",
          "name": "id",
          "type": "uint256"
        },
        {
          "internalType": "uint256",
          "name": "quantity",
          "type": "uint256"
        }
      ],
      "name": "buyTicket",
      "outputs": [],
      "stateMutability": "payable",
      "type": "function",
      "payable": true
    },
    {
      "inputs": [
        {
          "internalType": "uint256",
          "name": "id",
          "type": "uint256"
        },
        {
          "internalType": "uint256",
          "name": "quantity",
          "type": "uint256"
        },
        {
          "internalType": "address",
          "name": "to",
          "type": "address"
        }
      ],
      "name": "transferTicket",
      "outputs": [],
      "stateMutability": "nonpayable",
      "type": "function"
    }
  ],
  "bytecode": "0x608060405234801561001057600080fd5b50610a9b806100206000396000f3fe6080604052600436106100555760003560e01c80630374ab0b1461005a5780630b7914301461007c578063298ec208146100b757806361b8ce8c146100ca578063dae7a13c146100ec578063f086a09b1461010c575b600080fd5b34801561006657600080fd5b5061007a610075366004610632565b61012c565b005b34801561008857600080fd5b5061009c6100973660046106ea565b610265565b6040516100ae96959493929190610757565b60405180910390f35b61007a6100c5366004610702565b61032c565b3480156100d657600080fd5b506100df610437565b6040516100ae919061098c565b3480156100f857600080fd5b506100df610107366004610609565b61043d565b34801561011857600080fd5b5061007a610127366004610723565b61045a565b4283116101545760405162461bcd60e51b815260040161014b906108dc565b60405180910390fd5b600081116101745760405162461bcd60e51b815260040161014b90610839565b6040805160c0810182523381526020808201878152828401879052606083018690526080830185905260a08301859052600254600090815280835293909320825181546001600160a01b0319166001600160a01b03909116178155925180519293926101e69260018501920190610554565b506040820151600280830191909155606083015160038301556080830151600483015560a090920151600590910155805490600061022383610a1e565b91905055507f520312b3f92d85187a80772b3a26d59eda0407292f0adefd806c79b46145968783604051610257919061098c565b60405180910390a150505050565b600060208190529081526040902080546001820180546001600160a01b039092169291610291906109e3565b80601f01602080910402602001604051908101604052809291908181526020018280546102bd906109e3565b801561030a5780601f106102df5761010080835404028352916020019161030a565b820191906000526020600020905b8154815290600101906020018083116102ed57829003601f168201915b5050505050908060020154908060030154908060040154908060050154905086565b60008281526020819052604090206002015461035a5760405162461bcd60e51b815260040161014b90610927565b600082815260208190526040902060020154421061038a5760405162461bcd60e51b815260040161014b90610802565b600082815260208190526040902060038101546103a89083906109ad565b34146103c65760405162461bcd60e51b815260040161014b90610897565b81816005015410156103ea5760405162461bcd60e51b815260040161014b906107d6565b818160050160008282546103fe91906109cc565b90915550503360009081526001602090815260408083208684529091528120805484929061042d908490610995565b9091555050505050565b60025481565b600160209081526000928352604080842090915290825290205481565b6000838152602081905260409020600201546104885760405162461bcd60e51b815260040161014b90610927565b60008381526020819052604090206002015442106104b85760405162461bcd60e51b815260040161014b90610802565b3360009081526001602090815260408083208684529091529020548211156104f25760405162461bcd60e51b815260040161014b90610955565b3360009081526001602090815260408083208684529091528120805484929061051c9084906109cc565b90915550506001600160a01b03811660009081526001602090815260408083208684529091528120805484929061042d908490610995565b828054610560906109e3565b90600052602060002090601f01602090048101928261058257600085556105c8565b82601f1061059b57805160ff19168380011785556105c8565b828001600101855582156105c8579182015b828111156105c85782518255916020019190600101906105ad565b506105d49291506105d8565b5090565b5b808211156105d457600081556001016105d9565b80356001600160a01b038116811461060457600080fd5b919050565b6000806040838503121561061b578182fd5b610624836105ed565b946020939093013593505050565b60008060008060808587031215610647578182fd5b843567ffffffffffffffff8082111561065e578384fd5b818701915087601f830112610671578384fd5b813560208282111561068557610685610a4f565b604051601f8301601f19168101820184811182821017156106a8576106a8610a4f565b60405282815284830182018b10156106be578687fd5b828286018383013791820181019590955298938701359750505060408501359460600135935090915050565b6000602082840312156106fb578081fd5b5035919050565b60008060408385031215610714578182fd5b50508035926020909101359150565b600080600060608486031215610737578283fd5b833592506020840135915061074e604085016105ed565b90509250925092565b600060018060a01b0388168252602060c08184015287518060c0850152825b818110156107925789810183015185820160e001528201610776565b818111156107a3578360e083870101525b50604084019790975250506060810193909352608083019190915260a082015260e0601f909201601f1916010192915050565b6020808252601290820152714e6f7420656e6f756768207469636b65747360701b604082015260600190565b6020808252601a908201527f4576656e742068617320616c7265616479206f63637572726564000000000000604082015260600190565b602080825260409082018190527f596f752063616e206f7267616e697a6520616e206576656e74206f6e6c792069908201527f6620796f7520637265617465206d6f7265207468616e2030207469636b657473606082015260800190565b60208082526025908201527f45746865722073656e7420646f6573206e6f74206d61746368207469636b65746040820152640818dbdcdd60da1b606082015260800190565b6020808252602b908201527f596f752063616e206f7267616e697a6520616e206576656e7420666f7220612060408201526a667574757265206461746560a81b606082015260800190565b602080825260149082015273115d995b9d08191bd95cc81b9bdd08195e1a5cdd60621b604082015260600190565b6020808252601e908201527f596f7520646f206e6f74206861766520656e6f756768207469636b6574730000604082015260600190565b90815260200190565b600082198211156109a8576109a8610a39565b500190565b60008160001904831182151516156109c7576109c7610a39565b500290565b6000828210156109de576109de610a39565b500390565b6002810460018216806109f757607f821691505b60208210811415610a1857634e487b7160e01b600052602260045260246000fd5b50919050565b6000600019821415610a3257610a32610a39565b5060010190565b634e487b7160e01b600052601160045260246000fd5b634e487b7160e01b600052604160045260246000fdfea26469706673582212204f5493d336a8434b98469f7b4a703fdcc1aaf3d7f5e01a5e481808b0d801f0a164736f6c63430008000033",
  "immutableReferences": {},
  "source": "// SPDX-License-Identifier: Unlicense\r\npragma solidity >=0.5.0 <0.9.0;\r\n\r\ncontract EventContract {\r\n    struct Event {\r\n        address organizer;\r\n        string name;\r\n        uint date;\r\n        uint price;\r\n        uint ticketCount;\r\n        uint ticketRemain;\r\n    }\r\n\r\n    mapping(uint => Event) public events;\r\n    mapping(address => mapping(uint => uint)) public tickets;\r\n    uint public nextId;\r\n\r\n    event EventDateDebug(uint date);\r\n\r\n    function createEvent(string memory name, uint date, uint price, uint ticketCount) external {\r\n        require(date > block.timestamp, \"You can organize an event for a future date\");\r\n        require(ticketCount > 0, \"You can organize an event only if you create more than 0 tickets\");\r\n\r\n        events[nextId] = Event(msg.sender, name, date, price, ticketCount, ticketCount);\r\n        nextId++;\r\n        emit EventDateDebug(date);\r\n    }\r\n\r\n    function buyTicket(uint id, uint quantity) external payable {\r\n        require(events[id].date != 0, \"Event does not exist\");\r\n        require(events[id].date > block.timestamp, \"Event has already occurred\");\r\n        Event storage _event = events[id];\r\n        require(msg.value == (_event.price * quantity), \"Ether sent does not match ticket cost\");\r\n        require(_event.ticketRemain >= quantity, \"Not enough tickets\");\r\n        _event.ticketRemain -= quantity;\r\n        tickets[msg.sender][id] += quantity;\r\n    }\r\n\r\n    function transferTicket(uint id, uint quantity, address to) external {\r\n        require(events[id].date != 0, \"Event does not exist\");\r\n        require(events[id].date > block.timestamp, \"Event has already occurred\");\r\n        require(tickets[msg.sender][id] >= quantity, \"You do not have enough tickets\");\r\n        tickets[msg.sender][id] -= quantity;\r\n        tickets[to][id] += quantity;\r\n    }\r\n}\r\n",
  "sourcePath": "C:\\Users\\Dell\\Desktop\\Projects\\EventContractProject\\contracts\\EventContract.sol",
  "compiler": {
    "name": "solc",
    "version": "0.8.0+commit.c7dfd78e.Emscripten.clang"
  },
  "schemaVersion": "3.4.16",
  "updatedAt": "2023-09-16T09:48:53.525Z",
  "networkType": "ethereum",
  "devdoc": {
    "kind": "dev",
    "methods": {},
    "version": 1
  },
  "userdoc": {
    "kind": "user",
    "methods": {},
    "version": 1
  }
}